S01700004763634170706C69636174696F6E312E737265635B
S113000045C0000060C000005EC000005CC000008D
S11300105AC0000058C0000056C0000054C0000080
S113002052C0000050C000004EC000004CC0000090
S11300304AC0000048C0000046C00000E1C1000002
S113004042C0000040C000003EC000003CC00000B0
S11300503AC0000038C0000036C0000034C00000C0
S113006032C0000030C000002EC000002CC00000D0
S11300702AC0000028C0000026C0000024C00000E0
S113008022C0000020C000001EC0000011241FBEBA
S1130090CFEFD0E1DEBFCDBF11E0A0E0B1E0E4E9F5
S11300A0F4E000E00BBF02C007900D92A231B1074B
S11300B0D9F721E0A2E1B1E001C01D92A332B20759
S11300C0E1F7AED0E5C19CCFCF93DF9300D0CDB79D
S11300D0DEB79A83898389819A818130910559F0A9
S11300E08230910571F0892B91F48BE390E020EC40
S11300F0FC0120830CC08BE390E020E8FC0120830A
S113010006C08BE390E020E4FC01208300000F9004
S11301100F90DF91CF910895CF93DF9300D000D05B
S11301201F92CDB7DEB78D838D81833698F51A8201
S113013019822DC09D818DEC989F812D1124869567
S113014086958695880F282F220F220F820F292F3C
S1130150281B822F882F90E09C838B832B813C81EA
S113016089819A81880F991F80509F4FFC013183A8
S1130170208389819A8101969A8389839D818DEC5C
S1130180989F812D11248695869586958D838D81E2
S1130190882381F60F900F900F900F900F90DF91AE
S11301A0CF910895CF93DF93CDB7DEB78AE390E084
S11301B020ECFC0120838BE390E020ECFC01208305
S11301C084E390E02FEFFC01208385E390E02FEFA0
S11301D0FC01208381E590E02DE4FC01208383E58C
S11301E090E0FC01108287E590E027E530E0F9011A
S11301F020812260FC0120831092190110921801C1
S11302008FE590E02FE530E0F90120812068FC01C2
S113021020831092170110921601DF91CF91089557
S1130220CF93DF9300D0CDB7DEB7BCDF83E590E09A
S11302302FE0FC01208310921D0110921C011092EA
S113024013011092120110921B0110921A011092C4
S11302502001198281E0898381E08A8389E390E027
S1130260FC0180818F738093210180912101882F6B
S113027090E087339105E1F0883391053CF48F31A8
S1130280910509F471C08F97B1F085C08D33910544
S113029049F08E33910519F0CB9739F07CC089E190
S11302A03BDF79C082E338DF76C086E435DF73C094
S11302B08AE532DF70C0809116019091170131E018
S11302C0892B09F030E0809112019091130121E013
S11302D0892B09F020E0832F82238823C9F081E051
S11302E090E0909313018093120182E390E0909345
S11302F01501809314018BE090E0909305018093A5
S1130300040181E090E0909317018093160143C0AB
S1130310809116019091170131E0019709F030E0C6
S1130320809112019091130121E0892B09F020E0C2
S1130330832F82238823B9F081E090E09093130106
S11303408093120182E390E090931501809314014D
S11303508AE090E0909305018093040110921701C4
S11303601092160118C017C08AE090E09093010122
S1130370809300018AE090E090930301809302014E
S11303808AE090E090930501809304011092170194
S113039010921601000080911C0190911D0101979B
S11303A071F510921D0110921C018981813039F57B
S11303B080912001893030F4809120018F5F8093F7
S11303C0200102C0109220018A81813029F4809199
S11303D018019091190178DE85E390E020911801CD
S11303E030911901220F331F20503F4FF901208112
S11303F031812A5F3E4FF9012081FC0120832ECFF9
S11304001F920F9200905F000F9211248F939F937D
S1130410CF93DF93CDB7DEB781E090E090931D01D9
S113042080931C0180911801909119010196909379
S11304301901809318018091180190911901039773
S113044021F41092190110921801809112019091D7
S11304501301019799F4809114019091150101976A
S113046090931501809314018091140190911501CA
S1130470892B21F41092130110921201DF91CF9174
S11304809F918F910F9000925F000F901F9018958D
S1070490F894FFCF0A
S11304940A000A000A00C0F9A4B0999282F8809074
S10504A4FFBF94
S9030000FC
