:020000020000FC
:0C0000000C947D000C9493000C9496006E
:04003C000C94990087
:10008C00C0F9A4B0999282F88090FF0090EC91BBDB
:10009C0092BB9AE090936A0093E099BF789498E1B0
:1000AC0091BF45E0992793BF07B7026007BF9DE05A
:1000BC0093BF6894ECE8F0E0A0E0B0E1C0E2D0E1DE
:1000CC0030EC399330E8399330E43993C0E269E08D
:1000DC0000EC1FEFCFEFDFE701BB14BB1ABB15BB66
:1000EC0002BBCBBBD0E020E078EC88EC08950FEF9E
:1000FC000DBF00E10EBF0E944C000C9483008F9347
:10010C006F9360E2C0E2899182BB88BBE20F3491AD
:10011C0035BBECE86F918F910895E894DBBB189593
:10012C0068941BBB18954A9549F445E00E948500DC
:10013C000EF4189523952A3029F018951895688394
:10014C000C94890020E0189520E0B0E0A6E00E9415
:10015C00850018952F932AE00E9485002F918A958F
:0A016C00C9F7189588EC78EC189597
:00000001FF
