:020000020000FC
:040000000C946500F7
:10008C00C0F9A4B0999282F88090ECE8F0E0A0E07E
:10009C00B0E1C4E0D0E160E000EF1FEFCFEBDFE7B1
:1000AC0001BB14BB1ABB15BB02BBCBBB44E029E0A4
:1000BC00D9E0DD93DD93DD93DD93A0E008950FEFA0
:1000CC000DBF00E10EBF0E944B000C948A0029E08A
:1000DC004030D1F01EF0809B0C9486008099E894FF
:1000EC00203041F02D93A41741F00C9478002A9500
:1000FC000C9470002AE00C947D00A0E00C947D0020
:10010C004A9568940C946B000F931F934F93A0E047
:10011C0044E00D914A954030F1F01D910117D1F357
:10012C004F911F910F9144E0819B0C946B000C94A8
:10013C008A000F932F9300E1889448F002BB2D9115
:10014C00E20F249125BBECE8000F0C94A300A0E077
:10015C002F910F9108954F9350E044E0A0E05D93F0
:0A016C00A417E9F700000C94B80096
:00000001FF
