:020000020000FC
:040000000C945A0002
:10008C00C0F9A4B0999282F88090ECE8F0E060E0BE
:10009C0000EC1FEFCFEBDFE701BB14BB1ABB15BBAA
:1000AC0002BBCBBB29E008950FEF0DBF00E10EBFE3
:1000BC000E944B000C9498000E949E0026130C94F6
:1000CC007700DBBB0E94AE0015BB819B0C948B00B0
:1000DC000E94AE000E949800819B0C948B000C94A3
:1000EC006800809B0C947F00819B0C948B000C947B
:1000FC0077002030B1F30E949E00809B0C947F000F
:10010C002A950C9498000C946200293051F30E94AB
:10011C009E00819B0C948B002395CBBB0C94980078
:10012C000C946200E20F349135BBECE80C94620045
:10013C004F935F936F9360E054E042E04A95F1F780
:10014C005A95D9F76A95C1F76F915F914F910895C0
:10015C004F935F936F9360E054E14AE04A95F1F757
:10016C005A95D9F76A95C1F76F915F914F910895A0
:00000001FF
