:020000020000FC
:0C0000000C9475000C9482000C94850098
:04003C000C94880098
:10008C00C0F9A4B0999282F88090FF0090EC91BBDB
:10009C0092BB9AE090936A0093E099BF789498E1B0
:1000AC0091BF45E0992793BF07B7026007BF9DE05A
:1000BC0093BF6894ECE8F0E0B0E0A1E074E669E08E
:1000CC0000EC1FEFCFEFDFE701BB14BB1ABB15BB76
:1000DC0002BBCBBBD0E020E074E684E608950FEFC2
:1000EC000DBF00E10EBF0E944C000C947B00E20F90
:1000FC00349135BBECE80895E894DBBB1895689413
:10010C001BBB18954A9579F445E00E947D002EF4AE
:10011C007A95A1F478940C947B0023952A3021F0E5
:10012C0078940C947B00189520E0189520E0B0E0B2
:10013C00A6E00E947D0078940C947B002F932AE01B
:10014C000E947D002F918A95C9F778940C947B00BE
:0A015C0084E674E678940C947B00AE
:00000001FF
