:020000020000FC
:040000000C945A0002
:10008C00C0F9A4B0999282F88090ECE8F0E060E0BE
:10009C0000EC1FEFCFE3DFEB01BB14BB1ABB15BBAE
:1000AC0002BBCBBB29E008950FEF0DBF00E10EBFE3
:1000BC000E944B000C9487000E948D0026130C9418
:1000CC006800DBBB81990C94700082990C947C00C5
:1000DC000C9468002030B1F30E948D0081990C942F
:1000EC0068002A950C9487000C946200293051F317
:1000FC0082990C9468002395CBBB0C9487000C94CC
:10010C006200E20F349135BBECE80C9462004F9323
:10011C005F936F9360E05EE044E14A95F1F75A9586
:10012C00D9F76A95C1F76F915F914F9108954F93ED
:10013C005F936F936CE85FEF48EF4A9571F75A95B0
:0E014C0059F76A9541F76F915F914F910895B1
:00000001FF
