:020000020000FC
:040000000C944D000F
:10008C0000E00ABB0BBB1FEF14BB15BB08950FEFB1
:10009C000DBF00E10EBF0E9446000FEF05BBC899D3
:1000AC000C9455001EEF15BBCD9B0E9453000E9473
:1000BC0099001CEF15BBCD9B0E9453000E94990028
:1000CC0018EF15BBCD9B0E9453000E94990010EFB6
:1000DC0015BBCD9B0E9453000E94990010EE15BBDE
:1000EC00CD9B0E9453000E94990010EC15BBCD9B38
:1000FC000E9453000E94990010E815BBCD9B0E94F2
:10010C0053000E94990010E015BBCD9B0E94530038
:10011C000E9499001FEF15BBCD9B0E9453000E94BB
:10012C0099000C9458005F936F937F9370E062E09A
:10013C0058E15A95F1F76A95D9F77A95C1F77F91FD
:06014C006F915F91089520
:00000001FF
