:020000020000FC
:040000000C946500F7
:10008C00C0F9A4B0999282F88090ECE8F0E0A0E07E
:10009C00B0E1C4E0D0E160E000EF1FEFCFEBDFE7B1
:1000AC0001BB14BB1ABB15BB02BBCBBB44E029E0A4
:1000BC00D9E0DD93DD93DD93DD93A0E008950FEFA0
:1000CC000DBF00E10EBF0E944B0029E04030D1F083
:1000DC001EF0809B0C9484008099E894203041F0B1
:1000EC002D93A41741F00C9476002A950C946E0075
:1000FC002AE00C947B00A0E00C947B004A95689459
:10010C000C946B0044E0819B0C946B000C94880065
:10011C000F932F9300E1889448F002BB2D91E20FCE
:10012C00249125BBECE8000F0C949200A0E02F91D9
:10013C000F9108952F935F936F9324E12A95F1F714
:0A014C0000006F915F912F9108955C
:00000001FF
