:020000020000FC
:0C0000000C948A000C94A6000C94AC0038
:04003C000C94C90057
:10008C00C0F9A4B0999282F88090FF0090EC91BBDB
:10009C0092BB9AE090936A0093E099BF9CE791BF62
:1000AC0045E007B7026007BF9DE093BFECE8F0E0C6
:1000BC00A1E0B0E1C0E2D0E130EC399330E8399303
:1000CC0030E43993C0E230E03D933AE03D933D9308
:1000DC00ADE131E03D9330E03D933C93ABE13DE14C
:1000EC003C93A0E069E000EE1FEF1FE701BB14BBDF
:1000FC001ABB15BB02BB1BBB10E020E088EC78ECF4
:10010C0001E0302E789408950FEF0DBF00E10EBF83
:10011C000E944C000C9490000F936F9360E2C332DA
:10012C0061F0099102BBC61B2881E20F349135BBEB
:10013C00ECE8C60F6F910F910895C0E20C949700F4
:10014C000F93032D0E7F302E0F9118950F93032DC7
:10015C000260302E0E94B4000F9118950F931F93DC
:10016C002F932C2FCBE10881C02F00E0099301E0E5
:10017C0010E2C11308830C2FCBE10883C22F2F91FF
:10018C001F910F9108954A9549F445E00E94920001
:10019C006F93632D60FF0E94D5006F9118950E949C
:1001AC00D80008950F931F932F9320E014E0C11BE8
:1001BC000881013039F42CE1C21B088103950A3007
:1001CC003CF40883120FC10F2F911F910F910895CA
:0601DC0000E00C94E700B6
:00000001FF
