:020000020000FC
:040000000C94580004
:10008C00C0F9A4B0999282F88090ECE8F0E060E0BE
:10009C0000EC1FEF01BB14BB1ABB15BB02BB6BBB47
:1000AC0029E008950FEF0DBF00E10EBF0E944B0039
:1000BC000C94860000FD01FD0C9464000E948C00E1
:1000CC0000FD01FD0C946A00819B0C947200829BD4
:1000DC000C947C000C946A002030B1F381990C9440
:1000EC006A002A950C9486000C946000293061F308
:1000FC0082990C946A0023950C9486000C946000F1
:10010C00E20F349135BBECE80C946A004F935F938B
:10011C006F9360EF5EEB4EEB4A95F1F75A95D9F77A
:10012C006A95C1F76F915F914F9108954F935F93CB
:10013C006F9365E15FEF48EF4A9571F75A9559F760
:0C014C006A9541F76F915F914F91089503
:00000001FF
