:020000020000FC
:040000000C946500F7
:10008C00C0F9A4B0999282F88090ECE8F0E0A0E07E
:10009C00B0E1C4E0D0E160E000EF1FEFCFEBDFE7B1
:1000AC0001BB14BB1ABB15BB02BBCBBB44E029E0A4
:1000BC00D9E0DD93DD93DD93DD93A0E008950FEFA0
:1000CC000DBF00E10EBF0E944B0029E04030E1F073
:1000DC000E94A1001EF0809B0C9486008099E894ED
:1000EC00203041F02D93A41741F00C9478002A9500
:1000FC000C946E002AE00C947D00A0E00C947D0022
:10010C004A9568940C946B000F931F934F93A0E047
:10011C0044E00D914A95403001F11D910117D1F346
:10012C004F911F910F9144E0819B0C946B000E94A6
:10013C00A1000C949A000F932F9300E1889448F03F
:10014C0002BB2D91E20F249125BBECE8000F0C941F
:10015C00A500A0E02F910F9108954F9350E044E03B
:10016C00A0E05D93A417E9F70E94A1000C949A00FB
:00000001FF
