:020000020000FC
:040000000C946500F7
:10008C00C0F9A4B0999282F88090ECE8F0E0A0E07E
:10009C00B0E1C4E0D0E160E000EF1FEFCFEBDFE7B1
:1000AC0001BB14BB1ABB15BB02BBCBBB44E029E0A4
:1000BC00D9E0DD93DD93DD93DD93A0E008950FEFA0
:1000CC000DBF00E10EBF0E944B0029E04030E1F073
:1000DC000E949000809B0C948300203041F02D9363
:1000EC00A41741F00C9475002A950C946E002AE02C
:1000FC000C947A00A0E00C947A004A9508948099AC
:10010C000C946B000C94850044E0819B0C946B0068
:10011C000C948A000F932F9300E1889448F002BB53
:10012C002D91E20F249125BBECE8000F0C94940068
:10013C00A0E02F910F9108952F935F936F9324E17B
:0E014C002A95F1F700006F915F912F910895B1
:00000001FF
